:020000040000FA
:0600000044EF10F01200B5
:02002A000000D4
:04002C000C013E5134
:10003000010A01E0120060C063FC61C064FC62C0A0
:1000400065FC63C066FC48EC0EF03CCCE9FF3DCC9F
:10005000EAFFEE50EFCFEAFFE96E67CCEEFF68CC27
:10006000EEFF69CCEEFF6ACCEEFF12000C013E51B0
:10007000010A01E0120064C063FC65C064FC66C054
:1000800065FC67C066FC48EC0EF03CCCE9FF3DCC5B
:10009000EAFFEE50EFCFEAFFE96E67CCEEFF68CCE7
:1000A000EEFF69CCEEFF6ACCEEFF12004ACC60F0A6
:1000B0000001616B626B636B060E6127000E6223A9
:1000C00063234ACC63FC61C064FC62C065FC63C00E
:1000D00066FC0BEC0EF067CC60F068CC61F069CC8C
:1000E00062F06ACC63F04ACC64F00001656B666B29
:1000F000676B800E6427050E6523000E6623672359
:1001000064C063FC65C064FC66C065FC67C066FCD7
:100110000BEC0EF067CC64F068CC65F069CC66F04F
:100120006ACC67F06FCFCDF00001400E9A6F60C0CF
:100130009BF061C09CF062C09DF063C09EF014EC27
:100140000AF09FC068F00001685102E00C014E8186
:100150000001696B12006FCFCDF068C09AF044ECDB
:100160000AF00C014E911200000169AB10D0080E8C
:100170007A5F000E7B5B7B3504E27A510008000E4B
:100180007B5505E3696B020E6A6F0C015281120008
:1001900064C061FF65C062FF66C063FF67C064FF43
:1001A000080E656E00016A5111E192C066FF93C0AE
:1001B00067FF94C068FF95C069FF96C06AFF97C04B
:1001C0006BFF98C06CFF99C06DFF1200800E666EC9
:1001D00072C067FF73C068FF74C069FF6A51190A73
:1001E00001E19AD0010A01E194D00F0A01E18ED019
:1001F000010A01E188D0030A01E17DD0010A01E191
:1002000077D0070A72E0010A6DE0030A68E0010A8C
:1002100060E01F0A5BE0010A56E0030A4EE0010AB3
:1002200046E0070A41E0010A3CE0030A37E0010A20
:1002300030E00F0A28E0010A21E0030A1CE0010A6D
:1002400012E0070A0DE0010A08E0030A01E01200CB
:100250000F016A6A6B6A030E0BD00F016A6A06D03F
:100260000F01010E02D00F01050E6A6E6B6A040EBB
:100270006C6E050E57D00F016A6A08D00F01010E8F
:100280006A6E6B6A3DD00F01020E6A6E6B6A010ED8
:1002900037D00F016A6A6B6A020E32D00F01410E2D
:1002A00008D00F01420E05D00F01430E02D00F01FE
:1002B000470E6A6E6B6A040E23D00F016A6A6B6A7E
:1002C000060E6C6E2FD00F01100E05D00F01120E0E
:1002D00002D00F01130E6A6E6B6A070E11D00F0168
:1002E000110E0BD00F01300E08D00F01310E05D0CA
:1002F0000F01320E02D00F01360E6A6E6B6A090EC4
:100300006C6E060E0FD00F016A6A09D00F01200E25
:1003100005D00F01210E02D00F01220E6A6E6B6A0A
:100320006C6A080E6D6E12000F0E6514080801E06D
:100330007FD100016A6B66CF6BF0E00E6B15800A0F
:1003400001E170D1E00A01E10CD1200A01E1AED057
:10035000600A47E0200A01E067D169AB69D169AD65
:1003600067D169516B19100B01E003D17E0E702526
:10037000E96E000E7121EA6E67CFEEFF68CFEEFFE7
:1003800069CFEEFF6ACFEEFF6BCFEEFF6CCFEEFFD3
:100390006DCFEEFF6B510E0BE842E81C070B146E9D
:1003A000156AE8507027155071237051765D7151B0
:1003B000775902E2696B67D06979200E6B11F00BF7
:1003C000926F6BA12CD17E0E6C6F000E6D6F0C01C5
:1003D0006C0E3C6F000E3D6FBAEC03F00001696BD0
:1003E0001CD1699B67CF72F067CF93F068CF73F031
:1003F00068CF94F069CF74F069CF95F0966B976BE6
:10040000986B996B0C016C0E3C6F000E3D6F17ECF6
:1004100004F00C013F5101E000D1000175A344D06C
:100420006BA326D06BA10AD06B510C0BE842E842BB
:10043000E81C030B010F6E6F6F6B04D076C06EF07B
:1004400077C06FF076516E191EE177516F191BE17D
:10045000696B6A0E6C6F0F0E6D6F0C016C0E3C6F4A
:10046000000E3D6FBAEC03F00001600E926FD5D024
:100470006BA10BD06C506D1006E176516A1802E149
:1004800077516B1802E00E0E76D076C06EF077C012
:100490006FF0698B698D6999706B716BF40E7A6F6F
:1004A000010E7B6F600E38D0070E65D0699B67CF59
:1004B00072F067CF93F068CF73F068CF94F069CF94
:1004C00074F069CF95F0966B976B986B996B0C01F4
:1004D0006C0E3C6F000E3D6F17EC04F00C013F51A9
:1004E00001E09BD0000175A13AD0706B716B696B14
:1004F000040ED8807655000E775510E2F40E7A6F10
:10050000010E7B6F698B960E6C6F000E6D6F76C05F
:1005100096F077C097F0410E926F81D07651040A21
:100520000CE0070A08E0010A04E0030A08E14F0EA4
:1005300005D04B0E03D0470E01D0430E926F76C00C
:100540006EF077C06FF0960E6C6F000E6D6F0C0141
:100550006C0E3C6F000E3D6F19EC03F05ED0060E82
:100560000AD069AB65D069BD63D069516B19100BB6
:1005700004E0696B010E6A6F52D0930E6C6F000E2F
:100580006D6F7051765D7C6F715177597D6F070E7D
:10059000D8807C55000E7D5502E2926B29D0696BA4
:1005A0007C51070A23E0010A1DE0030A18E0010A52
:1005B00012E0070A0CE0010A06E0030A1CE10D0E36
:1005C000926F010E16D00B0E926F020E12D0090E12
:1005D000926F030E0ED0070E926F040E0AD0050E16
:1005E000926F07D0030E926F060E03D0010E926F2A
:1005F000070E6E6F6F6B6BB902D0929901D0928922
:100600000C016C0E3C6F000E3D6F19EC03F0000105
:100610006E5170276F51712369793FCC6AF00C01DC
:1006200052811200696B1200030E6A6F0C01528135
:020630001200B6
:0E0632003CCCE9FF3DCCEAFF090EEB5000097D
:1006400001E195D03CCCE9FF3DCCEAFF090EEB502F
:10065000100B18E00C013F6B010E3E6F3CCCE9FF24
:100660003DCCEAFF0C0EE926000EEA22EECF14F094
:10067000EFCF15F005D015C0FAFF00011450F96E48
:10068000FADF12003CCCE9FF3DCCEAFF090EEB504B
:10069000070B010A36E0020A34E0060A64E13CCCAA
:1006A000E9FF3DCCEAFF020EE926000EEA22EECF7A
:1006B00061FCEDCF62FC3CCCE9FF3DCCEAFFEECF24
:1006C0005FFCEDCF60FC3CCCE9FF3DCCEAFF0C0EBB
:1006D000E926000EEA22EECF14F0EFCF15F03CCC65
:1006E000E9FF3DCCEAFF040EE926000EEA22145091
:1006F000EE240C015D6F1550EE205E6F57EC0BF091
:1007000036D03CCCE9FF3DCCEAFF020EE926000ED4
:10071000EA22EECF5BFCEDCF5CFC3CCCE9FF3DCCAC
:10072000EAFFEECF59FCEDCF5AFC3CCCE9FF3DCCC3
:10073000EAFF0C0EE926000EEA22EECF14F0EFCF0E
:1007400015F03CCCE9FF3DCCEAFF040EE926000E93
:10075000EA221450EE240C01576F1550EE20586F0A
:1007600088EC0AF004D00C01060E3F6F12000C0159
:100770003F6B12003CCCE9FF3DCCEAFF090EEB5089
:10078000000952E03CCCE9FF3DCCEAFF090EEB50FA
:10079000100B18E00C013F6B020E3E6F3CCCE9FFE2
:1007A0003DCCEAFF0C0EE926000EEA22EECF14F053
:1007B000EFCF15F005D015C0FAFF00011450F96E07
:1007C000FADF12003CCCE9FF3DCCEAFF090EEB500A
:1007D000070B030A02E0010A23E13CCCE9FF3DCC10
:1007E000EAFF020EE926000EEA22EECF5BFCEDCF17
:1007F0005CFC3CCCE9FF3DCCEAFF0C0EE926000E88
:10080000EA22EECF59FCEDCF5AFC3CCCE9FF3DCCBF
:10081000EAFFEECF57FCEDCF58FC88EC0AF004D08D
:100820000C01070E3F6F12000C013F6B12003CCC15
:10083000E9FF3DCCEAFF060EE926000EEA22EECFE4
:1008400047FCEECF48FCEFCF49FCF00E0C014815F9
:10085000100A3AE0800A34E0100A2EE0F00A28E09C
:10086000100A20E0300A1AE0100A14E0700A0EE0C4
:10087000100A08E0200A5FE1BC0E406F170E416FBE
:10088000070E57D03C0E406F190E3BD04C0E406FF8
:10089000190E37D05C0E406F190E33D06C0E406FBE
:1008A000190E2FD07C0E406F190E416F0E0E41D0E5
:1008B000EC0E406F190E25D0FC0E406F190E21D0A2
:1008C0000C0E406F1A0E1DD00F0E48150A0A2AE0B2
:1008D000020A20E00E0A18E0020A0EE0060A08E00A
:1008E000020A29E1F40E406F170E416F0F0E21D05E
:1008F0006C0E406F180E13D047511DE1840E406FEF
:10090000180E416F020E15D0475115E1940E406F3D
:10091000180E0DD047510FE1DC0E406F180E416FDD
:10092000030E07D0475107E1F40E406F180E416FD8
:10093000090E426F03D0080E3F6F1200080E3F6F82
:1009400040CCF6FF41CCF7FF0900F5CF43FC09008E
:10095000F5CF44FC0900F5CF45FC0800F5CF46FC77
:1009600042516BE04851445D62E14751435D5FE1B4
:10097000110E3F6F4951455D03E0400E461557E0AB
:1009800040CCF6FF41CCF7FF0900F5CF14F0090089
:10099000F5CF15F00900F5CF16F00900F5CF17F0E7
:1009A0000900F5CF18F00900F5CF19F00900F5CFCF
:1009B0001AF00800F5CF1BF03CCCE9FF3DCCEAFF74
:1009C000060EE926000EEA2214C0EEFF15C0EEFF67
:1009D00016C0EEFF17C0EEFF18C0EEFF19C0EEFF05
:1009E0001AC0EEFF1BC0EEFF46AD07D03CCCE9FFBE
:1009F0003DCCEAFF080E49CCEBFF46A916D03F6B71
:100A00003E6B3CCCE9FF3DCCEAFF0C0EE926000E24
:100A1000EA22EECF14F0EFCF15F005D015C0FAFFA3
:100A200000011450F96EFADF12003F6B1200080E3D
:0C0A30004027000E4123420783D712002C
:040A3C00C10EC26EB7
:100A4000C16A8C6A956A0C011969006B016B010E11
:100A5000026F036B046B056F076B07CC06FC086B1A
:100A600008CC10FC096B09CC11FC0A6B0ACC12FCF7
:100A70000B6B0BCC13FC0C6B0CCC14FC0D6B0DCC6A
:100A800015FC0E6B0ECC16FC4ACC63FC0C01646B9F
:100A9000656B666B800E6327010E6423000E652371
:100AA000C00E66230BEC0EF067CC22FC68CC23FC56
:100AB00069CC24FC6ACC25FC4ACC63FC0C01646B39
:100AC000656B666B020E6427000E6523C00E6623FD
:100AD0000BEC0EF067CC1EFC68CC1FFC69CC20FC34
:100AE0006ACC21FC0C01070E2A6F0C0E2B6F0F0E27
:100AF000276F0C0E286F080E296F12000C01195178
:100B000006E11751040B03E0179517811200010E3F
:100B1000195D10E31951146E156A153404E214506E
:100B2000F008000E155406E31807185103E119CC1C
:100B300018FC178112000C0107918150200B01E075
:100B4000078107938150100B01E0078306510719B5
:100B50001A6F03511A1507151B6F071D146E0451E8
:100B60001A1514141C6F02511A151A6F07CC06FCC3
:100B7000E8501B111C11051501E0178317A30AD0BB
:100B80001951FE0A06E0010A04E0FF0A03E1178595
:100B900001D017810C015351010B09E10C011751D0
:100BA000010B05E00C0153810C01179117930C0107
:100BB00056A103D00FCC8CFF569112000C013E5170
:100BC000020A1EE0030A01E012001ECC63FC1FCCE7
:100BD00064FC20CC65FC21CC66FC48EC0EF03CCCDF
:100BE000E9FF3DCCEAFFEE50EFCFEAFFE96E67CCBC
:100BF000EEFF68CCEEFF69CCEEFF6ACCEEFF120090
:100C00003CCCE9FF3DCCEAFFEE50EFCFEAFFE96EC6
:100C1000EECF63FCEECF64FCEECF65FCEFCF66FC5D
:100C20000BEC0EF00C0168A91ED01E0EE96E0C0E26
:100C3000EA6E6751EE18146E6851EE18156E695120
:100C4000EE18166E6A51EE18176E1598145015109E
:100C50001610171026E10C014FA102D0FEEC0EF089
:100C60000C011F8912001E0EE96E0C0EEA6E675110
:100C7000EE18146E6851EE18156E6951EE18166E66
:100C80006A51EE18176E159814501510161017109B
:100C900008E10C014FB102D0E7EC0EF00C011F99F6
:100CA00012000C01120E3F6F12000C013E51020A9D
:100CB0001EE0030A01E0120022CC63FC23CC64FC9A
:100CC00024CC65FC25CC66FC48EC0EF03CCCE9FF5E
:100CD0003DCCEAFFEE50EFCFEAFFE96E67CCEEFFC6
:100CE00068CCEEFF69CCEEFF6ACCEEFF12003CCC84
:100CF000E9FF3DCCEAFFEE50EFCFEAFFE96EEECF21
:100D000063FCEECF64FCEECF65FCEFCF66FC0BEC32
:100D10000EF00C0168A91CD0220EE96E0C0EEA6ED2
:100D20006751EE18146E6851EE18156E6951EE1881
:100D3000166E6A51EE18176E15981450151016108D
:100D4000171022E10C0150B150910C0123891200BF
:100D5000220EE96E0C0EEA6E6751EE18146E6851A1
:100D6000EE18156E6951EE18166E6A51EE18176E70
:100D70001598145015101610171006E10C0150A10B
:100D800050810C01239912000C01120E3F6F1200CA
:100D90000C013E51020A0EE0030A01E012003CCCB5
:100DA000E9FF3DCCEAFFEE50EFCFEAFFE96E19CC48
:100DB000EFFF12003CCCE9FF3DCCEAFFEE50EFCF55
:100DC000EAFFE96EEFCF1DFC000E0C011D5D0FE385
:100DD0001D51146E156A153404E21450F008000E0B
:100DE000155405E31DCC19FC1DCC18FC12001D5137
:100DF000146E156AFE0E141801E1155008E01D511D
:100E0000166E176AFF0E161805E1175003E11DCC88
:100E100019FC12000C01120E3F6F1200120012009A
:100E20000C013E51020A10E0030A01E012003CCC22
:100E3000E9FF3DCCEAFFEE50EFCFEAFFE96E36CC9A
:100E4000EEFF37CCEDFF12003CCCE9FF3DCCEAFFD2
:100E5000EE50EFCFEAFFE96EEECF36FCEDCF37FC78
:100E60000C01346B3651371107E0348336CC31FC3A
:100E700037CC32FC336B12003851391119E03A513A
:100E800017E0800E356F348534833A51146E156A3D
:100E900038CC06F039CC07F03ACC0BF015C00CF08A
:100EA000F9EC0FF004C031FC05C032FC0C01336BCF
:100EB00012000C013E51020A10E0030A01E0120088
:100EC0003CCCE9FF3DCCEAFFEE50EFCFEAFFE96E04
:100ED00038CCEEFF39CCEDFF12003CCCE9FF3DCC25
:100EE000EAFFEE50EFCFEAFFE96EEECF38FCEDCF30
:100EF00039FC0C01346B3651371107E0348336CCA2
:100F000031FC37CC32FC336B12003851391119E007
:100F10003A5117E0800E356F348534833A51146EA0
:100F2000156A38CC06F039CC07F03ACC0BF015C076
:100F30000CF0F9EC0FF004C031FC05C032FC0C01E0
:100F4000336B12000C013E51020A0EE0030A01E06D
:100F500012003CCCE9FF3DCCEAFFEE50EFCFEAFFB8
:100F6000E96E3ACCEFFF12003CCCE9FF3DCCEAFF42
:100F7000EE50EFCFEAFFE96EEFCF3AFC0C01346B95
:100F80003651371107E0348336CC31FC37CC32FC94
:100F9000336B12003851391119E03A5117E0800EC5
:100FA000356F348534833A51146E156A38CC06F0A7
:100FB00039CC07F03ACC0BF015C00CF0F9EC0FF07F
:100FC00004C031FC05C032FC0C01336B12004ACC6A
:100FD0002DFC0C012E6B2F6B306B070E2E27000E95
:100FE0002F2330234ACC63FC2ECC64FC2FCC65FC31
:100FF00030CC66FC0BEC0EF067CC2DFC68CC2EFCE4
:1010000069CC2FFC6ACC30FC0C01346B36513711A3
:101010000AE034830C014D8736CC31FC37CC32FCEE
:101020000C01336B12003851391130E03A512EE087
:101030006FCFCDF00001040E9A6F2DCC9BF02ECC1B
:101040009CF02FCC9DF030CC9EF014EC0AF09FC0A9
:101050003BFC0C013B511AE00C014D870C01800E4A
:10106000356F348534833A51146E156A38CC06F0E6
:1010700039CC07F03ACC0BF015C00CF0F9EC0FF0BE
:1010800004C031FC05C032FC0C01336B12006FCF81
:10109000CDF03BCC9AF044EC0AF00C014D971200D5
:1010A0000C0134A51CD065AC1AD00F0E65140108D4
:1010B00016E10C0151870C013A51146E156A38CCB7
:1010C00006F039CC07F03ACC0BF015C00CF0F9EC77
:1010D0000FF004C031FC05C032FC0C01336B120070
:1010E0002DCC61FF2ECC62FF2FCC63FF30CC64FF90
:1010F000010E656E0C0134B11AD0800E3515356FB6
:1011000034A502D0357F01D0359F0C014BA502D00C
:10111000040E07D04BA302D0050E03D04BA104D080
:101120007F0E0C013511356F35CC66FF12003491FE
:10113000666A12000C0134A33DD0080E315F000E28
:10114000325B335B3335000E331907E6D880000E6F
:101150003155000E3255000E33552CE334B515D001
:1011600036CC14F037CC15F0166A310EE96E0C0E41
:10117000EA6EEE501424316FEE501520326FEE50AF
:101180001620336F0C01518712003A51146E156A04
:1011900038CC06F039CC07F03ACC0BF015C00CF087
:1011A000F9EC0FF004C031FC05C032FC0C01336BCC
:0611B00064EC10F01200D7
:0A11B6000001CC5101E196D0CC51AC
:1011C000020A01E188D0030A01E012006EAE80D06D
:1011D000A1510BE0A9C000FFAAC001FFABC002FFF4
:1011E000ACC003FF0D01D48102D00D01D4910001E8
:1011F000A2510BE0ADC004FFAEC005FFAFC006FFBB
:10120000B0C007FF0D01D48302D00D01D4930001BB
:10121000A3510BE0B1C008FFB2C009FFB3C00AFF81
:10122000B4C00BFF0D01D48502D00D01D49500018F
:10123000A4510BE0B5C00CFFB6C00DFFB7C00EFF48
:10124000B8C00FFF0D01D48702D00D01D497000163
:10125000A5510BE0B9C010FFBAC011FFBBC012FF0F
:10126000BCC013FF0D01D48902D00D01D499000137
:10127000A6510BE0BDC014FFBEC015FFBFC016FFD6
:10128000C0C017FF0D01D48B02D00D01D49B00010B
:10129000A7510BE0C1C060FDC2C061FDC3C062FDCB
:1012A000C4C063FD0D01D48D02D00D01D49D000199
:1012B000A8510BE0C5C064FDC6C065FDC7C066FD92
:1012C000C8C067FD0D01D48F09D00D01D49F06D091
:1012D000800E6F6E12006FAE06D04DD80001CC6B41
:1012E000CDC06FFF1200800E6F6E12000001CC6B3C
:1012F000400E6F6E800E6F6E3ED80D01F86B606A07
:101300000F01506B0E01206B306B406B506B606BAC
:10131000706B500E776E0D01D46BD56BD86BE06B94
:10132000110EE16F220EE26F330EE36F440EE46F95
:10133000550EE56F660EE66F770EE76FF36BF3CD34
:10134000F2FDF3CDF1FDF3CDF0FD0F011869E30ED1
:10135000196F1A691B69200E736E0D011C0EFC6F4C
:10136000FA690001A16BA26BA36BA46BA56BA66BC2
:10137000A76BA86B12000001A051080A11E00F0A28
:101380000FE0010A0DE0030A0BE0010A09E0070A79
:1013900007E0010A05E0030A03E0010A07E106D0BD
:1013A000410E706EBA0E716E070E05D0440E706E4F
:1013B000BF0E716E170E726E12000F0140B705D08E
:1013C000430E776E9AC0C9F00DD030B705D0440EE9
:1013D000776E9AC0CAF006D020B707D0450E776E58
:1013E0009AC0CBF09AC09FF0120000019F6B1200D0
:1013F0000F0140AF06D0430E776E409FC9C09FF0EB
:10140000120030AF06D0440E776E409FCAC09FF0E6
:10141000120020AF06D0450E776E409FCBC09FF0E4
:10142000120000019F6B12000001CE6B080ECE5D12
:1014300029E2CE51EA6AA10FE96E000EEA22EF50CE
:101440001FE1CE51EA6AA10FE96E000EEA229AC0AE
:10145000EFFF9AC09FF0CE51040DF3CFE9FFF4CF18
:10146000EAFFA90EE926000EEA229BC0EEFF9CC00F
:10147000EEFF9DC0EEFF9EC0EEFF010ECC6F12008E
:10148000CE2BD4D79F6B12000001CF6B080ECF5D1F
:1014900016E2CF51EA6AA10FE96E000EEA22EF5080
:1014A0009A5D0BE1CF51EA6AA10FE96E000EEA22C4
:1014B000EF6A010ECC6F9F6F1200CF2BE7D79F6BA7
:1014C0001200A4A222D0500E776E60BE13D00F017E
:1014D00050AF02D0510E08D00E0120AF02D0520EF4
:1014E00003D030AF03D0530E776E04D000019F6B52
:1014F000A49212000F0E6014E96EEA6AA10EE926AA
:10150000000EEA22EFCF9FF0120000019F6B120045
:101510000C015B515C1101E1C9D0040E5B5D000E52
:101520005C5911E257CCE9FF58CCEAFFEF5059CC97
:10153000E9FF5ACCEAFFEF6E592B000E5A23572BC6
:1015400058235B07B1D0080E5B5D000E5C5922E2A8
:1015500057CCE9FF58CCEAFFEECF14F0EECF15F0F0
:10156000EECF16F0EFCF17F059CCE9FF5ACCEAFFD7
:1015700014C0EEFF15C0EEFF16C0EEFF17C0EEFF61
:10158000040E5927000E5A23040E5727000E582325
:10159000040E88D0100E5B5D000E5C5932E257CC11
:1015A000E9FF58CCEAFFEECF14F0EECF15F0EECF06
:1015B00016F0EECF17F0EECF18F0EECF19F0EECF19
:1015C0001AF0EFCF1BF059CCE9FF5ACCEAFF14C058
:1015D000EEFF15C0EEFF16C0EEFF17C0EEFF18C0FD
:1015E000EEFF19C0EEFF1AC0EEFF1BC0EEFF080EA3
:1015F0005927000E5A23080E5727000E5823080EAD
:1016000051D057CCE9FF58CCEAFFEECF14F0EECF23
:1016100015F0EECF16F0EECF17F0EECF18F0EECFBC
:1016200019F0EECF1AF0EECF1BF0EECF1CF0EECF9C
:101630001DF0EECF1EF0EECF1FF0EECF20F0EECF7C
:1016400021F0EECF22F0EFCF23F059CCE9FF5ACCB6
:10165000EAFF14C0EEFF15C0EEFF16C0EEFF17C084
:10166000EEFF18C0EEFF19C0EEFF1AC0EEFF1BC060
:10167000EEFF1CC0EEFF1DC0EEFF1EC0EEFF1FC040
:10168000EEFF20C0EEFF21C0EEFF22C0EEFF23C020
:10169000EEFF100E5927000E5A23100E5727000E8A
:1016A0005823100E5B5F000E5C5B32D712000C01FA
:1016B0006151621101E17FD0040E615D000E62593B
:1016C00012E25DCCF6FF5ECCF7FF0800F5505FCC70
:1016D000E9FF60CCEAFFEF6E5F2B000E60235D2B0D
:1016E0005E23610766D0080E615D000E625926E236
:1016F0005DCCF6FF5ECCF7FF0900F5CF14F00900D2
:10170000F5CF15F00900F5CF16F00800F5CF17F06A
:101710005FCCE9FF60CCEAFF14C0EEFF15C0EEFF1E
:1017200016C0EEFF17C0EEFF040E5F27000E602309
:10173000040E5D27000E5E23040E39D05DCCF6FF4B
:101740005ECCF7FF0900F5CF14F00900F5CF15F0D6
:101750000900F5CF16F00900F5CF17F00900F5CF15
:1017600018F00900F5CF19F00900F5CF1AF00800BC
:10177000F5CF1BF05FCCE9FF60CCEAFF14C0EEFFB1
:1017800015C0EEFF16C0EEFF17C0EEFF18C0EEFF4B
:1017900019C0EEFF1AC0EEFF1BC0EEFF080E5F2758
:1017A000000E6023080E5D27000E5E23080E615FA9
:0817B000000E625B7CD7120001
:0817B800000000000100002602
:1017C0000100B817020000260100B8170300002628
:1017D0000200B817040000260400B8170500002610
:1017E0000100B817060000260200B81707000026FF
:1017F0000400B8170010000504002E20011000019D
:101800000100700C021000010400710C051000139F
:101810000400421D081000051800322009100005C0
:1018200004004B200A100005040050200C10001387
:101830000200B20E0D1000130100440F1710001328
:101840000200200E18100005010055201810010597
:10185000040056201810020504005A201810030531
:1018600004005E2018100405040062200012000528
:101870000100BF200012011104002C00001202110F
:1018800004006C00001400050100BC2000140113CA
:101890000400BC0B001600050100BD200016010568
:1018A0000400B420001602050400B8200016030549
:1018B0000400B820001604050400B8200016050531
:1018C0000400B820001606050400B820001607051D
:1018D0000400B820001608050400B8200018000510
:1018E0000100BE20001801130400AA0C0018021306
:1018F0000100900D001A00050100BD20001A01052D
:101900000400B020001A02050400B820001A0305E4
:101910000400B820001A04050400B820001A0505C8
:101920000400B820001A06050400B820001A0705B4
:101930000400B820001A08050400B82000200000A8
:101940000100B817002000000100B81700300000A7
:101950000100B817003000000100B8170040000077
:101960000100B817004000000100B8170050000047
:101970000100B817005000000100B8170060000116
:101980000100070C026000050100BC200260010399
:101990000100010C036000050100BC20036001038D
:1019A0000100000C056000050100BC20056001037A
:1019B0000100050C066000050100BC200660010363
:1019C0000100020C076000050100BC200760010354
:1019D0000100030C086000050100BC200860010341
:1019E0000100040C0062000301000F0C00700000F5
:1019F0000100B817007000000100B8170080000057
:101A00000100B817008000000100B8170090000026
:0C1A10000100B817009000000100B8179A
:041A1C000C014B6B03
:101A20004D6B4E6B4F6B506B516B526B536B546BDA
:101A3000556B566B4CCCA0F076EC09F08EEC0FF0A9
:101A40007BEC0EF056EC00F0E7EC07F0DBEC08F076
:101A50006F6A0C01348100019A6BDDEC09F070ECC7
:101A600008F060860C014B81120061EC0AF00C0159
:101A70004BA147D000019F5144E0C00E9F15800A42
:101A80002DE0C00A1EE0400A3AE13F0E9F15040A0D
:101A900012E0060A08E0030A32E10C014DA12FD042
:101AA000ABEC0FF02CD00C014DA329D04BB527D0B7
:101AB0009BEC0EF024D00C014DA721D050EC08F087
:101AC0001ED00C014BB51BD03F0E00019F1517E136
:101AD0000C014EA114D094EC01F011D00C014BB5C7
:101AE0000ED04BA30CD03F0E00019F1508E10C0156
:101AF0004FA105D056B103D0568107EC0FF0609E80
:101B0000A49212000001010E9A6FDDEC09F00C01A5
:101B10004BA142D000019F513FE00C01515111E017
:101B200051A70DD04DA708D00001040E9A6FDDEC2F
:101B300009F070EC08F060860C0151971200516BAF
:101B40001200525113E04BB527D052A10DD04EA137
:101B500008D00001400E9A6FDDEC09F0C8EC00F0EF
:101B600060860C0152911200526B1200535114E026
:101B70004BA312D04BB510D053A10DD050A108D01B
:101B80000001800E9A6FDDEC09F020EC0FF060860A
:101B90000C0153911200536B1200F8EC09F00C0188
:101BA0004BA120D000019F511DE0C00E9F15800A5F
:101BB00009E0C00A03E0400A04E012000C014BB542
:101BC00011D012000C014BA30DD04BB50BD03F0E22
:101BD00000019F1501E012000C0150A102D00FEF8F
:101BE00007F0120012000C014BA114D0505104E078
:101BF00050A102D00EEC07F00C014D5104E04DA7AE
:101C000002D09AEC08F00C014E5104E04EA102D033
:061C1000B4EC00F012002C
:0A1C16000C0166AB1ED065CC67FC24
:101C200066CC68FCD89067376837D89067376837D4
:101C3000D8906737683768CC6AFC030E6515146E58
:101C4000E00E671514100809686F6ACC67FC63CC56
:101C50006AFC64CC69FC17D0050E63CC67FC64CCCD
:101C600068FC000A06E00C01D89067376837E80482
:101C7000FBE10C016A6B67CC69FC68CC67FCE00E89
:101C80006915686F696B66BF688966BD68851200F3
:101C90000C0164A71CD064CC14F063CC15F0030EC7
:101CA000D89015321432E804FBE114C069FC200E10
:101CB0000C0115106A6F030E6415146EFC0E691585
:101CC0001410696F66CC67FC65CC68FC0ED064CCE0
:101CD00014F063CC15F0050ED89015321432E804D8
:101CE000FBE114C067FC15C068FC0C0164B56A8D8B
:061CF00064B96A8F1200C6
:0A1CF6006FCFCDF00001020E9A6FCF
:101D00006BCC9BF06CCC9CF06DCC9DF06ECC9EF0BF
:101D100014EC0AF09FC06FFC0C016F5102E00C0143
:101D20004D8312006FCFCDF06FCC9AF044EC0AF0E7
:101D30000C014D9312000F0E651402E17EEC05F0CC
:101D400012000C013E51020A1EE0030A01E01200DB
:101D50006BCC63FC6CCC64FC6DCC65FC6ECC66FC1F
:101D600048EC0EF03CCCE9FF3DCCEAFFEE50EFCF63
:101D7000EAFFE96E67CCEEFF68CCEEFF69CCEEFFC0
:101D80006ACCEEFF12003CCCE9FF3DCCEAFFEE50FE
:101D9000EFCFEAFFE96EEECF63FCEECF64FCEECF4F
:101DA00065FCEFCF66FC0BEC0EF00C0168B50BD0B8
:101DB000B9DF67CC6BFC68CC6CFC69CC6DFC6ACC81
:0E1DC0006EFC7BEF0EF00C01120E3F6F120056
:021DCE006FCFD5
:101DD000CDF00001800E9A6F1ECC9BF01FCC9CF0C2
:101DE00020CC9DF021CC9EF014EC0AF09FC02CFC7E
:101DF0000C012C5102E00C014F8112006FCFCDF08D
:101E00002CCC9AF044EC0AF00C014F91120027CC34
:101E1000E9FF28CCEAFF66CFEEFF67CFEEFF68CF81
:101E2000EEFF69CFEEFF6ACFEEFF6BCFEEFF6CCF18
:101E3000EEFF6DCFEEFF0F0E65140C01266F120042
:101E400022CC61FF23CC62FF24CC63FF25CC64FF4E
:101E50002ACCE9FF2BCCEAFFEECF66FFEECF67FF7F
:101E6000EECF68FFEECF69FFEECF6AFFEECF6BFFDC
:0E1E7000EECF6CFFEFCF6DFF29CC65FF1200A7
:021E7E002A0E2A
:101E8000F66E000EF76E000EF86E00010900F550B8
:101E9000FA6F0900F550FB6F03E1FA6701D03DD0FE
:101EA0000900F550F56F0900F550F66F0900F5507F
:101EB000F76F09000900F550E96E0900F550EA6E68
:101EC000090009000900F550F86F0900F550F96F95
:101ED00009000900F6CFFCF0F7CFFDF0F8CFFEF0D7
:101EE000F5C0F6FFF6C0F7FFF7C0F8FF0001F853A2
:101EF00002E1F95307E00900F550EE6EF807F8E249
:101F0000F907F9D7FCC0F6FFFDC0F7FFFEC0F8FFE8
:0C1F10000001FA07000EFB5BBFD71200B7
:041F1C006FCFCDF0C6
:101F20000001010E9A6F00019B6B9C6B9D6B9E6B79
:101F300014EC0AF09FC075FC0C01755102E00C0115
:101F40004D8112006FCFCDF075CC9AF044EC0AF0C1
:101F50000C014D9112000F0E6514020823E10C01D3
:101F60004A51675C02E067501DE16650820A16E044
:101F7000030A12E0010A0BE0820A06E0030A01E00C
:101F800012000C014B8305D00C014B8503D00C01D2
:101F90004B934B9560EF10F063EC10F061EC10F098
:061FA0000EEC0DF0120032
:0A1FA60033EC10F00C016B6B100E11
:101FB0006C6F6D6B6E6B0C01020E4A6F0C014C6BFB
:101FC0000C01200E366F4E0E376F0C01386B396BDB
:101FD0000C013A6B1EEC05F00EEC0DF050EC10F01D
:101FE0009BEC05F03AEC10F00009F8E0F3EC0DF092
:021FF000F5D723
:0E1FF20006C012F006500B02F4CF05F0F3CF3C
:1020000004F007500C02F4CF07F0F3CF06F00B02F8
:10201000F3500526F4500622E86A072212500C02FB
:0E202000F3500526F4500622E86A0722000C51
:02202E004A93D3
:1020300008004D6963726F636869702043414E6F99
:1020400070656E204465766963650056312E3000F8
:1020500056312E3000047856341221436587785665
:06206000341221436587E4
:0A206600470ED56E3C0ED66ED58EE7
:10207000F2941200F2A407D000013D0EFF6FE85069
:08208000D626F294010C000CBD
:082088001BEE00F02BEE00F04E
:10209000F86A0F9C3FEC0FF0D3EC0FF0FDD7120065
:1020A000DBEC08F035EC0DF082EC0DF0CDEF0DF02F
:0F20B0000801006008010062080000000108023A
:0120BF00031D
:0C20C0001200FF00120012008C701200D1
:00000001FF
