:020000040000FA
:0600000075EF12F0120082
:0A0006000200392500006B01000024
:1000100002000000382500006E0100000100000011
:1000200001013651010A01E012009CC059F19DC046
:100030005AF19EC05BF19FC05CF143EC10F034C1FB
:10004000E9FF35C1EAFFEE50EFCFEAFFE96E5DC18F
:10005000EEFF5EC1EEFF5FC1EEFF60C1EEFF12007A
:1000600001013651010A01E01200A0C059F1A1C0FE
:100070005AF1A2C05BF1A3C05CF143EC10F034C1B3
:10008000E9FF35C1EAFFEE50EFCFEAFFE96E5DC14F
:10009000EEFF5EC1EEFF5FC1EEFF60C1EEFF12003A
:1000A00042C19CF000019D6B9E6B9F6B060E9D27CD
:1000B000000E9E239F2342C159F19DC05AF19EC05C
:1000C0005BF19FC05CF106EC10F05DC19CF05EC17D
:1000D0009DF05FC19EF060C19FF042C1A0F00001A1
:1000E000A16BA26BA36B800EA027050EA123000EAF
:1000F000A223A323A0C059F1A1C05AF1A2C05BF171
:10010000A3C05CF106EC10F05DC1A0F05EC1A1F0EF
:100110005FC1A2F060C1A3F06FCF33F10101400EC7
:10012000006F9CC001F19DC002F19EC003F19FC011
:1001300004F120EC0AF005C1A4F00001A45102E092
:10014000010146810001A56B12006FCF33F1A4C0FD
:1001500000F15AEC0AF00101469112000001A5AB32
:1001600010D0080EB65F000EB75BB73504E2B6518B
:100170000008000EB75505E3A56B020EA66F01013E
:100180004A811200A0C061FFA1C062FFA2C063FF4C
:10019000A3C064FF080E656E0001A65111E1CEC038
:1001A00066FFCFC067FFD0C068FFD1C069FFD2C073
:1001B0006AFFD3C06BFFD4C06CFFD5C06DFF1200C7
:1001C000800E666EAEC067FFAFC068FFB0C069FF4B
:1001D000A651190A01E19AD0010A01E194D00F0A4F
:1001E00001E18ED0010A01E188D0030A01E17DD04E
:1001F000010A01E177D0070A72E0010A6DE0030A03
:1002000068E0010A60E01F0A5BE0010A56E0030AA9
:100210004EE0010A46E0070A41E0010A3CE0030A19
:1002200037E0010A30E00F0A28E0010A21E0030A62
:100230001CE0010A12E0070A0DE0010A08E0030AC7
:1002400001E012000F016A6A6B6A030E0BD00F0106
:100250006A6A06D00F01010E02D00F01050E6A6E08
:100260006B6A040E6C6E050E57D00F016A6A08D0D7
:100270000F01010E6A6E6B6A3DD00F01020E6A6EAD
:100280006B6A010E37D00F016A6A6B6A020E32D0B8
:100290000F01410E08D00F01420E05D00F01430E91
:1002A00002D00F01470E6A6E6B6A040E23D00F0155
:1002B0006A6A6B6A060E6C6E2FD00F01100E05D0A5
:1002C0000F01120E02D00F01130E6A6E6B6A070E39
:1002D00011D00F01110E0BD00F01300E08D00F01FD
:1002E000310E05D00F01320E02D00F01360E6A6EAC
:1002F0006B6A090E6C6E060E0FD00F016A6A09D088
:100300000F01200E05D00F01210E02D00F01220E89
:100310006A6E6B6A6C6A080E6D6E12000F0E6514C1
:10032000080801E07FD10001A66B66CFA7F0E00EC0
:10033000A715800A01E170D1E00A01E10CD1200A81
:1003400001E1AED0600A47E0200A01E067D1A5AB29
:1003500069D1A5AD67D1A551A719100B01E003D153
:10036000BA0EAC25E96E000EAD21EA6E67CFEEFF46
:1003700068CFEEFF69CFEEFF6ACFEEFF6BCFEEFFE7
:100380006CCFEEFF6DCFEEFFA7510E0BE842E81CDD
:10039000070B146E156AE850AC271550AD23AC510D
:1003A000B25DAD51B35902E2A56B67D0A579200EBD
:1003B000A711F00BCE6FA7A12CD1BA0EA86F000E1B
:1003C000A96F0101A80E346F000E356FD6EC05F051
:1003D0000001A56B1CD1A59B67CFAEF067CFCFF016
:1003E00068CFAFF068CFD0F069CFB0F069CFD1F06F
:1003F000D26BD36BD46BD56B0101A80E346F000E9A
:10040000356F37EC06F00101375101E000D10001F2
:10041000B1A344D0A7A326D0A7A10AD0A7510C0B03
:10042000E842E842E81C030B010FAA6FAB6B04D053
:10043000B2C0AAF0B3C0ABF0B251AA191EE1B351D9
:10044000AB191BE1A56B6A0EA86F0F0EA96F010116
:10045000A80E346F000E356FD6EC05F00001600E6B
:10046000CE6FD5D0A7A10BD06C506D1006E1B25164
:100470006A1802E1B3516B1802E00E0E76D0B2C0DA
:10048000AAF0B3C0ABF0A58BA58DA599AC6BAD6BF5
:10049000F40EB66F010EB76F600E38D0070E65D040
:1004A000A59B67CFAEF067CFCFF068CFAFF068CF36
:1004B000D0F069CFB0F069CFD1F0D26BD36BD46BF1
:1004C000D56B0101A80E346F000E356F37EC06F0C6
:1004D0000101375101E09BD00001B1A13AD0AC6BD2
:1004E000AD6BA56B040ED880B255000EB35510E26B
:1004F000F40EB66F010EB76FA58BD20EA86F000E6B
:10050000A96FB2C0D2F0B3C0D3F0410ECE6F81D08C
:10051000B251040A0CE0070A08E0010A04E0030AE9
:1005200008E14F0E05D04B0E03D0470E01D0430E0D
:10053000CE6FB2C0AAF0B3C0ABF0D20EA86F000E5F
:10054000A96F0101A80E346F000E356F2BEC05F07A
:100550005ED0060E0AD0A5AB65D0A5BD63D0A5516F
:10056000A719100B04E0A56B010EA66F52D0CF0E99
:10057000A86F000EA96FAC51B25DB86FAD51B35901
:10058000B96F070ED880B855000EB95502E2CE6B90
:1005900029D0A56BB851070A23E0010A1DE0030A20
:1005A00018E0010A12E0070A0CE0010A06E0030A5B
:1005B0001CE10D0ECE6F010E16D00B0ECE6F020E8B
:1005C00012D0090ECE6F030E0ED0070ECE6F040EA2
:1005D0000AD0050ECE6F07D0030ECE6F060E03D0E5
:1005E000010ECE6F070EAA6FAB6BA7B902D0CE99E2
:1005F00001D0CE890101A80E346F000E356F2BECAF
:1006000005F00001AA51AC27AB51AD23A57937C144
:10061000A6F001014A811200A56B1200030EA66F1D
:0606200001014A811200F5
:0A062600D9CFE6FFE1CFD9FFD9508C
:10063000F90FE96EFF0EDA20EA6EEE50ED1001E1DF
:100640002DD1F90EDBCF14F0FA0EDBCF15F0040E2E
:10065000145C000E155821E2FD0EDBCFE9FFFE0E03
:10066000DBCFEAFFEF50E66EFB0EDBCFE9FFFC0EBF
:10067000DBCFEAFFE552E750EF6EFB0EDB2AFC0E04
:1006800001E3DB2AFD0EDB2AFE0E01E3DB2AF90E75
:10069000DB06FA0ECCE2DB06CAD7F90EDBCF14F08C
:1006A000FA0EDBCF15F0080E145C000E155838E278
:1006B000FD0EDBCFE9FFFE0EDBCFEAFFEECF14F03D
:1006C000EECF15F0EECF16F0EFCF17F0FB0EDBCF2D
:1006D000E9FFFC0EDBCFEAFF14C0EEFF15C0EEFF12
:1006E00016C0EEFF17C0EEFFD950FB0FE96EFF0EEC
:1006F000DA20EA6E040EEE26000EED22D950FD0F30
:10070000E96EFF0EDA20EA6E040EEE26000EED22F0
:10071000D950F90FE96EFF0EDA20EA6E040EBAD056
:10072000F90EDBCF14F0FA0EDBCF15F0100E145CCF
:10073000000E155848E2FD0EDBCFE9FFFE0EDBCFC1
:10074000EAFFEECF14F0EECF15F0EECF16F0EECFBD
:1007500017F0EECF18F0EECF19F0EECF1AF0EFCF82
:100760001BF0FB0EDBCFE9FFFC0EDBCFEAFF14C072
:10077000EEFF15C0EEFF16C0EEFF17C0EEFF18C06B
:10078000EEFF19C0EEFF1AC0EEFF1BC0EEFFD950FE
:10079000FB0FE96EFF0EDA20EA6E080EEE26000E61
:1007A000ED22D950FD0FE96EFF0EDA20EA6E080E39
:1007B000EE26000EED22D950F90FE96EFF0EDA2079
:1007C000EA6E080E67D0FD0EDBCFE9FFFE0EDBCF31
:1007D000EAFFEECF14F0EECF15F0EECF16F0EECF2D
:1007E00017F0EECF18F0EECF19F0EECF1AF0EECFF3
:1007F0001BF0EECF1CF0EECF1DF0EECF1EF0EECFD3
:100800001FF0EECF20F0EECF21F0EECF22F0EFCFB1
:1008100023F0FB0EDBCFE9FFFC0EDBCFEAFF14C0B9
:10082000EEFF15C0EEFF16C0EEFF17C0EEFF18C0BA
:10083000EEFF19C0EEFF1AC0EEFF1BC0EEFF1CC09A
:10084000EEFF1DC0EEFF1EC0EEFF1FC0EEFF20C07A
:10085000EEFF21C0EEFF22C0EEFF23C0EEFFD95015
:10086000FB0FE96EFF0EDA20EA6E100EEE26000E88
:10087000ED22D950FD0FE96EFF0EDA20EA6E100E60
:10088000EE26000EED22D950F90FE96EFF0EDA20A8
:10089000EA6E100EEE5E000EED5AC9D6E552E7CFB5
:1008A000D9FF1200D9CFE6FFE1CFD9FFD950F90F18
:1008B000E96EFF0EDA20EA6EEE50ED1001E1C7D0CE
:1008C000F90EDBCF14F0FA0EDBCF15F0040E145C3A
:1008D000000E155822E2FD0EDBCFF6FFFE0EDBCF39
:1008E000F7FF0800F550E66EFB0EDBCFE9FFFC0ECC
:1008F000DBCFEAFFE552E750EF6EFB0EDB2AFC0E82
:1009000001E3DB2AFD0EDB2AFE0E01E3DB2AF90EF2
:10091000DB06FA0ECBE2DB06C9D7F90EDBCF14F00B
:10092000FA0EDBCF15F0080E145C000E15583CE2F1
:10093000FD0EDBCFF6FFFE0EDBCFF7FF0900F5CF94
:1009400014F00900F5CF15F00900F5CF16F00800F6
:10095000F5CF17F0FB0EDBCFE9FFFC0EDBCFEAFF94
:1009600014C0EEFF15C0EEFF16C0EEFF17C0EEFF7D
:10097000D950FB0FE96EFF0EDA20EA6E040EEE2668
:10098000000EED22D950FD0FE96EFF0EDA20EA6E5F
:10099000040EEE26000EED22D950F90FE96EFF0E7F
:1009A000DA20EA6E040E4FD0FD0EDBCFF6FFFE0E0E
:1009B000DBCFF7FF0900F5CF14F00900F5CF15F0F4
:1009C0000900F5CF16F00900F5CF17F00900F5CFB3
:1009D00018F00900F5CF19F00900F5CF1AF008005A
:1009E000F5CF1BF0FB0EDBCFE9FFFC0EDBCFEAFF00
:1009F00014C0EEFF15C0EEFF16C0EEFF17C0EEFFED
:100A000018C0EEFF19C0EEFF1AC0EEFF1BC0EEFFCC
:100A1000D950FB0FE96EFF0EDA20EA6E080EEE26C3
:100A2000000EED22D950FD0FE96EFF0EDA20EA6EBE
:100A3000080EEE26000EED22D950F90FE96EFF0EDA
:100A4000DA20EA6E080EEE5E000EED5A2FD7E55260
:060A5000E7CFD9FF120000
:0A0A560034C1E9FF35C1EAFF090EC3
:100A6000EB50000901E19FD034C1E9FF35C1EAFF35
:100A7000090EEB50100B18E00101376B010E366FB9
:100A800034C1E9FF35C1EAFF0C0EE926000EEA2267
:100A9000EECF14F0EFCF15F005D015C0FAFF00012E
:100AA0001450F96EFADF120034C1E9FF35C1EAFFD4
:100AB000090EEB50070B010A39E0020A37E0060A7B
:100AC0006EE134C1E9FF35C1EAFF020EE926000EEE
:100AD000EA22EECFE6FFEFCFE6FF34C1E9FF35C1F2
:100AE000EAFFEECFE6FFEFCFE6FF34C1E9FF35C105
:100AF000EAFF0C0EE926000EEA22EECF16F0EFCF49
:100B000017F034C1E9FF35C1EAFF040EE926000EF3
:100B1000EA2200011650EE24146E1750EE20156ED6
:100B200014C0E6FFE66E52EC04F034D034C1E9FFA5
:100B300035C1EAFF020EE926000EEA22EECFE6FFFB
:100B4000EFCFE6FF34C1E9FF35C1EAFFEECFE6FFA4
:100B5000EFCFE6FF34C1E9FF35C1EAFF0C0EE9260D
:100B6000000EEA22EECF16F0EFCF17F034C1E9FF06
:100B700035C1EAFF040EE926000EEA2200011650F4
:100B8000EE24146E1750EE20156E14C0E6FFE66ECC
:100B900013EC03F0186E060EE15E185004D001014C
:100BA000060E376F12000101376B120034C1E9FFE6
:100BB00035C1EAFF090EEB50000956E034C1E9FFE8
:100BC00035C1EAFF090EEB50100B18E00101376B3D
:100BD000020E366F34C1E9FF35C1EAFF0C0EE9267B
:100BE000000EEA22EECF14F0EFCF15F005D015C0BD
:100BF000FAFF00011450F96EFADF120034C1E9FF68
:100C000035C1EAFF090EEB50070B030A02E0010AA7
:100C100027E134C1E9FF35C1EAFF020EE926000EE3
:100C2000EA22EECFE6FFEFCFE6FF34C1E9FF35C1A0
:100C3000EAFF0C0EE926000EEA22EECFE6FFEFCF28
:100C4000E6FF34C1E9FF35C1EAFFEECFE6FFEFCFA3
:100C5000E6FF13EC03F0146E060EE15E145004D0B0
:100C60000101070E376F12000101376B120034C10A
:100C7000E9FF35C1EAFF060EE926000EEA22EECFB3
:100C80003FF1EECF40F1EFCF41F1F00E0101401501
:100C9000100A18E0700A10E0400A08E0200A45E156
:100CA000540E386F1E0E396F070E3DD08C0E386F04
:100CB0001F0E396F020E37D09C0E386F1F0E396F22
:100CC0000E0E31D00F0E40150A0A1EE0020A0EE089
:100CD0000A0A08E0020A29E18C0E386F1E0E396FED
:100CE0000F0E21D0040E386F1F0E05D03F5106E1C4
:100CF0001C0E386F1F0E396F030E15D03F0515E11E
:100D0000340E386F1F0E0DD03F5106E13C0E386F88
:100D10001F0E396F090E07D03F0507E1840E386FAB
:100D20001F0E396F010E3A6F03D0080E376F120095
:100D3000080E376F38C1F6FF39C1F7FF0900F5CF4C
:100D40003BF10900F5CF3CF10900F5CF3DF108007A
:100D5000F5CF3EF13A516BE040513C5D62E13F51CD
:100D60003B5D5FE1110E376F41513D5D03E0400E89
:100D70003E1557E038C1F6FF39C1F7FF0900F5CF3E
:100D800014F00900F5CF15F00900F5CF16F00900B1
:100D9000F5CF17F00900F5CF18F00900F5CF19F0DD
:100DA0000900F5CF1AF00800F5CF1BF034C1E9FFB8
:100DB00035C1EAFF060EE926000EEA2214C0EEFF56
:100DC00015C0EEFF16C0EEFF17C0EEFF18C0EEFF15
:100DD00019C0EEFF1AC0EEFF1BC0EEFF3EAD07D0FC
:100DE00034C1E9FF35C1EAFF080E41C1EBFF3EA95E
:100DF00016D0376B366B34C1E9FF35C1EAFF0C0EF4
:100E0000E926000EEA22EECF14F0EFCF15F005D060
:100E100015C0FAFF00011450F96EFADF1200376BAB
:100E20001200080E3827000E39233A0783D7120024
:100E300001013651020A10E0030A01E0120034C138
:100E4000E9FF35C1EAFFEE50EFCFEAFFE96EF9C0E6
:100E5000EEFFFAC0EDFF120034C1E9FF35C1EAFF31
:100E6000EE50EFCFEAFFE96EEECFF9F0EDCFFAF0FA
:100E70000001F76BF951FA1107E0F783F9C0F4F0BC
:100E8000FAC0F5F0F66B1200FB51FC1119E0FD51B0
:100E900017E0800EF86FF785F783FD51146E156A21
:100EA000FBC008F0FCC009F0FDC00DF015C00EF04D
:100EB00021EC12F006C0F4F007C0F5F00001F66B6B
:100EC000120001013651020A10E0030A01E012008B
:100ED00034C1E9FF35C1EAFFEE50EFCFEAFFE96E1A
:100EE000FBC0EEFFFCC0EDFF120034C1E9FF35C1CD
:100EF000EAFFEE50EFCFEAFFE96EEECFFBF0EDCF69
:100F0000FCF00001F76BF951FA1107E0F783F9C023
:100F1000F4F0FAC0F5F0F66B1200FB51FC1119E089
:100F2000FD5117E0800EF86FF785F783FD51146EC1
:100F3000156AFBC008F0FCC009F0FDC00DF015C03B
:100F40000EF021EC12F006C0F4F007C0F5F000013D
:100F5000F66B120001013651020A0EE0030A01E0AD
:100F6000120034C1E9FF35C1EAFFEE50EFCFEAFFCE
:100F7000E96EFDC0EFFF120034C1E9FF35C1EAFFA1
:100F8000EE50EFCFEAFFE96EEFCFFDF00001F76B17
:100F9000F951FA1107E0F783F9C0F4F0FAC0F5F05F
:100FA000F66B1200FB51FC1119E0FD5117E0800EA9
:100FB000F86FF785F783FD51146E156AFBC008F0D2
:100FC000FCC009F0FDC00DF015C00EF021EC12F0D0
:100FD00006C0F4F007C0F5F00001F66B120042C144
:100FE000F0F00001F16BF26BF36B070EF127000ECE
:100FF000F223F32342C159F1F1C05AF1F2C05BF17F
:10100000F3C05CF106EC10F05DC1F0F05EC1F1F0F0
:101010005FC1F2F060C1F3F00001F76BF951FA1112
:101020000AE0F78301014587F9C0F4F0FAC0F5F052
:101030000001F66B1200FB51FC1130E0FD512EE077
:101040006FCF33F10101040E006FF0C001F1F1C068
:1010500002F1F2C003F1F3C004F120EC0AF005C183
:10106000FEF00001FE511AE0010145870001800EEB
:10107000F86FF785F783FD51146E156AFBC008F011
:10108000FCC009F0FDC00DF015C00EF021EC12F00F
:1010900006C0F4F007C0F5F00001F66B12006FCF48
:1010A00033F1FEC000F15AEC0AF00101459712003D
:1010B0000001F7A51CD065AC1AD00F0E651401080D
:1010C00016E1010149870001FD51146E156AFBC04C
:1010D00008F0FCC009F0FDC00DF015C00EF021ECC9
:1010E00012F006C0F4F007C0F5F00001F66B120034
:1010F000F0C061FFF1C062FFF2C063FFF3C064FFA4
:10110000010E656E0001F7B11AD0800EF815F86F68
:10111000F7A502D0F87F01D0F89F010143A502D0C6
:10112000040E07D043A302D0050E03D043A104D080
:101130007F0E0001F811F86FF8C066FF1200F791FA
:10114000666A12000001F7A33DD0080EF45F000E9E
:10115000F55BF65BF635000EF61907E6D880000E53
:10116000F455000EF555000EF6552CE3F7B515D0E5
:10117000F9C014F0FAC015F0166AF40EE96E000E0C
:10118000EA6EEE501424F46FEE501520F56FEE5019
:101190001620F66F010149871200FD51146E156A81
:1011A000FBC008F0FCC009F0FDC00DF015C00EF04A
:1011B00021EC12F006C0F4F007C0F5F00001F66B68
:0611C0001FEC12F012000A
:0A11C6000101325101E196D03251CF
:1011D000020A01E188D0030A01E012006EAE80D05D
:1011E00007510BE00FC100FF10C101FF11C102FF49
:1011F00012C103FF0D01D48102D00D01D491010170
:1012000008510BE013C104FF14C105FF15C106FF0F
:1012100016C107FF0D01D48302D00D01D493010143
:1012200009510BE017C108FF18C109FF19C10AFFD6
:101230001AC10BFF0D01D48502D00D01D495010117
:101240000A510BE01BC10CFF1CC10DFF1DC10EFF9D
:101250001EC10FFF0D01D48702D00D01D4970101EB
:101260000B510BE01FC110FF20C111FF21C112FF64
:1012700022C113FF0D01D48902D00D01D4990101BF
:101280000C510BE023C114FF24C115FF25C116FF2B
:1012900026C117FF0D01D48B02D00D01D49B010193
:1012A0000D510BE027C160FD28C161FD29C162FD20
:1012B0002AC163FD0D01D48D02D00D01D49D010121
:1012C0000E510BE02BC164FD2CC165FD2DC166FDE7
:1012D0002EC167FD0D01D48F09D00D01D49F06D01A
:1012E000800E6F6E12006FAE06D04DD80101326BCA
:1012F00033C16FFF1200800E6F6E12000101326B5E
:10130000400E6F6E800E6F6E3ED80D01F86B606AF6
:101310000F01506B0E01206B306B406B506B606B9C
:10132000706B500E776E0D01D46BD56BD86BE06B84
:10133000110EE16F220EE26F330EE36F440EE46F85
:10134000550EE56F660EE66F770EE76FF36BF3CD24
:10135000F2FDF3CDF1FDF3CDF0FD0F011869E30EC1
:10136000196F1A691B69200E736E0D011C0EFC6F3C
:10137000FA690101076B086B096B0A6B0B6B0C6B4D
:101380000D6B0E6B120001010651080A15E00F0AE1
:1013900013E0010A11E0030A0BE0010A0DE0070A5D
:1013A0000BE0010A09E0030A07E0010A0BE10AD099
:1013B000040E706EBC0E09D0410E706EBA0E716EC6
:1013C000070E05D0400E706E9A0E716E010E726E91
:1013D00012000F0140B705D0430E776E00C12FF108
:1013E0000DD030B705D0440E776E00C130F106D075
:1013F00020B707D0450E776E00C131F100C105F16D
:1014000012000101056B12000F0140AF06D0430E20
:10141000776E409F2FC105F1120030AF06D0440E09
:10142000776E409F30C105F1120020AF06D0450E07
:10143000776E409F31C105F112000101056B12006A
:10144000D9CFE6FFE1CFD9FFE652DF6A080EDF5CB5
:101450002AE2DF50EA6A070FE96E010EEA22EF5036
:1014600020E1DF50EA6A070FE96E010EEA2200C1AF
:10147000EFFF00C105F1DF50040DF3CFE9FFF4CF1A
:10148000EAFF0F0EE926010EEA2201C1EEFF02C1BA
:10149000EEFF03C1EEFF04C1EEFF0101010E326F4A
:1014A00004D0DF2AD3D70101056BE552E552E7CF1F
:1014B000D9FF1200D9CFE6FFE1CFD9FFE652DF6AAC
:1014C000080EDF5C17E2DF50EA6A070FE96E010ED3
:1014D000EA22EF500101005D0BE1DF50EA6A070FDD
:1014E000E96E010EEA22EF6A010E326F056F04D039
:1014F000DF2AE6D70101056BE552E552E7CFD9FFB8
:101500001200A4A222D0500E776E60BE13D00F013D
:1015100050AF02D0510E08D00E0120AF02D0520EB3
:1015200003D030AF03D0530E776E04D00101056BAA
:10153000A49212000F0E6014E96EEA6A070EE92603
:10154000010EEA22EFCF05F112000101056B120036
:101550000001AB0EDD6FE56FDE6BDEC0E6F0DF6B2A
:10156000DFC0E7F0E06BE0C0E8F0E16BE1C0E9F07C
:10157000E26BE2C0EAF0E36BE3C0EBF0E46BE4C0E3
:10158000ECF042C159F101015A6B5B6B5C6B020ECE
:101590005A27000E5B23C00E5C2306EC10F05DC1E1
:1015A00064F05EC165F05FC166F060C167F0000184
:1015B000DD0E6C6F000E6D6F010E6B6F42C159F145
:1015C00001015A6B5B6B5C6B020E5A27000E5B23AA
:1015D000C00E5C2306EC10F05DC160F05EC161F0EE
:1015E0005FC162F060C163F00001E50E696F000E3B
:1015F0006A6F120012000001EF5106E1ED51040B79
:1016000003E0ED95ED811200010EEF5D10E3EF5167
:10161000146E156A153404E21450F008000E1554C7
:1016200006E3EE07EE5103E1EFC0EEF0ED811200AC
:1016300001013651020A1EE0030A01E0120060C0F7
:1016400059F161C05AF162C05BF163C05CF143ECD7
:1016500010F034C1E9FF35C1EAFFEE50EFCFEAFFE9
:10166000E96E5DC1EEFF5EC1EEFF5FC1EEFF60C1DE
:10167000EEFF120034C1E9FF35C1EAFFEE50EFCFB3
:10168000EAFFE96EEECF59F1EECF5AF1EECF5BF102
:10169000EFCF5CF106EC10F001015EA91ED0600EE8
:1016A000E96E000EEA6E5D51EE18146E5E51EE1892
:1016B000156E5F51EE18166E6051EE18176E159884
:1016C000145015101610171026E1010147A102D081
:1016D000DFEC0DF0000161891200600EE96E000E72
:1016E000EA6E5D51EE18146E5E51EE18156E5F5184
:1016F000EE18166E6051EE18176E159814501510EE
:101700001610171008E1010147B102D0C8EC0DF026
:101710000001619912000101120E376F12000101E0
:101720003651020A1EE0030A01E0120064C059F1BA
:1017300065C05AF166C05BF167C05CF143EC10F024
:1017400034C1E9FF35C1EAFFEE50EFCFEAFFE96EA1
:101750005DC1EEFF5EC1EEFF5FC1EEFF60C1EEFF57
:10176000120034C1E9FF35C1EAFFEE50EFCFEAFFC6
:10177000E96EEECF59F1EECF5AF1EECF5BF1EFCF3C
:101780005CF106EC10F001015EA91CD0640EE96E5C
:10179000000EEA6E5D51EE18146E5E51EE18156E75
:1017A0005F51EE18166E6051EE18176E15981450B2
:1017B00015101610171022E1010148B148910001DF
:1017C00065891200640EE96E000EEA6E5D51EE1836
:1017D000146E5E51EE18156E5F51EE18166E605164
:1017E000EE18176E1598145015101610171006E104
:1017F000010148A148810001659912000101120E02
:10180000376F1200D9CFE6FFE1CFD9FFE6520101D1
:101810003651020A0DE0030A3CE134C1E9FF35C14B
:10182000EAFFEE50EFCFEAFFE96EEFC0EFFF31D0F5
:1018300034C1E9FF35C1EAFFEE50EFCFEAFFE96EB0
:10184000EFCFDFFF000EDF5C0FE3DF50146E156A91
:10185000153404E21450F008000E155405E3DFCFF0
:10186000EFF0EFC0EEF015D0DF50146E156AFE0EEB
:10187000141801E1155008E0DF50166E176AFF0ECC
:10188000161805E1175003E1DFCFEFF002D0120E7A
:10189000376FE552E552E7CFD9FF12001200120070
:0C18A000120012001200120012001200D0
:0418AC000101436B88
:1018B000456B466B476B486B496B4A6B4B6B4C6B8C
:1018C0004D6B4E6B44C106F17EEC09F031EC11F02A
:1018D00076EC10F050EC00F0EFEC07F0E3EC08F0E1
:1018E0006F6A0001F7810101006BE9EC09F078EC07
:1018F00008F0608601014381120081EC0AF00101C9
:1019000043A169D00101055166E0C00E0515800AAA
:101910002DE0C00A1EE0400A5CE13F0E0515040AF6
:1019200012E0060A08E0030A54E1010145A151D082
:101930004EEC11F04ED0010145A34BD043B549D038
:1019400096EC10F046D0010145A743D058EC08F0C2
:1019500040D0010143B53DD03F0E0101051539E1ED
:10196000010146A136D08EEC01F033D0010143B520
:1019700030D043A32ED03F0E01010515030A21E00C
:10198000010A16E0030A0BE0010A23E1010147A165
:1019900020D04EB11ED04E81E8EC0DF01AD00101DE
:1019A00047A317D04EB315D04E8340EC0EF011D0A4
:1019B000010147A50ED04EB50CD04E8598EC0EF027
:1019C00008D0010147A705D04EB703D04E87F0ECF1
:1019D0000EF0609EA49212000101010E006FE9EC6E
:1019E00009F0010143A170D00101055101E16CD062
:1019F0000101495111E049A70DD045A708D00101C7
:101A0000040E006FE9EC09F078EC08F06086010143
:101A100049971200496B12004A5113E043B554D064
:101A20004AA10DD046A108D00101400E006FE9EC9B
:101A300009F0C2EC00F0608601014A9112004A6B85
:101A400012004B5141E043A33FD043B53DD04BA1E1
:101A50000DD048A108D00101800E006FE9EC09F01B
:101A600001EC0EF0608601014B9112004BA30DD0EA
:101A700048A308D00101810E006FE9EC09F059EC90
:101A80000EF0608601014B9312004BA50DD048A5C6
:101A900008D00101820E006FE9EC09F0B1EC0EF004
:101AA000608601014B9512004BA70DD048A708D0C6
:101AB0000101830E006FE9EC09F009EC0FF060867C
:101AC00001014B9712004B6B120004EC0AF001016C
:101AD00043A136D00101055133E0C00E0515800A3F
:101AE00009E0C00A03E0400A04E01200010143B526
:101AF00027D01200010143A323D043B521D03F0ECC
:101B000001010515030A16E0010A0FE0030A08E0C7
:101B1000010A01E01200010148A111D052EF0CF0BE
:101B2000010148A30CD053EF0CF0010148A507D0E8
:101B300054EF0CF0010148A702D055EF0CF0120051
:101B40001200010143A123D0485113E048A102D063
:101B50004EEC0CF0010148A302D04FEC0CF0010157
:101B600048A502D050EC0CF0010148A702D051EC7E
:101B70000CF00101455104E045A702D0A2EC08F0A9
:101B80000101465104E046A102D0AEEC00F0120083
:101B90006FCF33F10101800E006F60C001F161C0B1
:101BA00002F162C003F163C004F120EC0AF005C148
:101BB0006EF000016E5102E00101478112006FCF0B
:101BC00033F16EC000F15AEC0AF0010147911200A6
:101BD00069C0E9FF6AC0EAFF66CFEEFF67CFEEFF9C
:101BE00068CFEEFF69CFEEFF6ACFEEFF6BCFEEFF5F
:101BF0006CCFEEFF6DCFEEFF0F0E65140001686F26
:101C0000120064C061FF65C062FF66C063FF67C009
:101C100064FF6CC0E9FF6DC0EAFFEECF66FFEECF58
:101C200067FFEECF68FFEECF69FFEECF6AFFEECF22
:101C30006BFFEECF6CFFEFCF6DFF6BC065FF120047
:101C40006FCF33F10101810E006F6FC001F170C0E1
:101C500002F171C003F172C004F120EC0AF005C179
:101C60007DF000017D5102E00101478312006FCF3A
:101C700033F17DC000F15AEC0AF0010147931200E4
:101C800078C0E9FF79C0EAFF66CFEEFF67CFEEFFCD
:101C900068CFEEFF69CFEEFF6ACFEEFF6BCFEEFFAE
:101CA0006CCFEEFF6DCFEEFF0F0E65140001776F66
:101CB000120073C061FF74C062FF75C063FF76C01D
:101CC00064FF7BC0E9FF7CC0EAFFEECF66FFEECF8A
:101CD00067FFEECF68FFEECF69FFEECF6AFFEECF72
:101CE0006BFFEECF6CFFEFCF6DFF7AC065FF120088
:101CF0006FCF33F10101820E006F7EC001F17FC012
:101D000002F180C003F181C004F120EC0AF005C1AA
:101D10008CF000018C5102E00101478512006FCF69
:101D200033F18CC000F15AEC0AF001014795120022
:101D300087C0E9FF88C0EAFF66CFEEFF67CFEEFFFE
:101D400068CFEEFF69CFEEFF6ACFEEFF6BCFEEFFFD
:101D50006CCFEEFF6DCFEEFF0F0E65140001866FA6
:101D6000120082C061FF83C062FF84C063FF85C030
:101D700064FF8AC0E9FF8BC0EAFFEECF66FFEECFBB
:101D800067FFEECF68FFEECF69FFEECF6AFFEECFC1
:101D90006BFFEECF6CFFEFCF6DFF89C065FF1200C8
:101DA0006FCF33F10101830E006F8DC001F18EC042
:101DB00002F18FC003F190C004F120EC0AF005C1DC
:101DC0009BF000019B5102E00101478712006FCF99
:101DD00033F19BC000F15AEC0AF001014797120061
:101DE00096C0E9FF97C0EAFF66CFEEFF67CFEEFF30
:101DF00068CFEEFF69CFEEFF6ACFEEFF6BCFEEFF4D
:101E00006CCFEEFF6DCFEEFF0F0E65140001956FE6
:101E1000120091C061FF92C062FF93C063FF94C043
:101E200064FF99C0E9FF9AC0EAFFEECF66FFEECFEC
:101E300067FFEECF68FFEECF69FFEECF6AFFEECF10
:101E40006BFFEECF6CFFEFCF6DFF98C065FF120008
:101E500000000000010000260100501E02000026C4
:101E60000100501E030000260200501E0400002640
:101E70000400501E050000260100501E060000262A
:101E80000200501E070000260400501E001000052E
:101E900004007E240110000101006601021000010F
:101EA0000400670105100013040038210810000524
:101EB000180082240910000504008D240A10000572
:101EC000040092240C1000130200C20E0D10001327
:101ED0000100540F171000130200300E18100005F7
:101EE0000100972418100105040098241810020519
:101EF00004009C24181003050400A02418100405F5
:101F00000400A4240012000501003525001201116F
:101F100004002000001202110400600000180005F7
:101F2000010034250018011304001E1700180213C5
:101F300001000418011800030100501E001A0005DA
:101F400001003325001A010504002625001A0205A8
:101F500004002E25001A030504002E25001A04058E
:101F600004002E25001A050504002E25001A06057A
:101F700004002E25001A070504002E25001A080566
:101F800004002E25011A00030100501E002000004D
:101F90000100501E002000000100501E00600001E2
:101FA0000100DD000260000501003225026001032E
:101FB0000100D70003600005010032250360010322
:101FC0000100D6000560000501003225056001030F
:101FD0000100DB00066000050100322506600103F8
:101FE0000100D800076000050100322507600103E9
:101FF0000100D900086000050100322508600103D6
:0C2000000100DA00006200030100E500AE
:04200C0001015CABC7
:102010001ED05BC15DF15CC15EF1D8905D375E376B
:10202000D8905D375E37D8905D375E375EC160F11E
:10203000030E5B15146EE00E5D15141008095E6F3B
:1020400060C15DF159C160F15AC15FF117D0050E51
:1020500059C15DF15AC15EF1000A06E00101D89054
:102060005D375E37E804FBE10101606B5DC15FF144
:102070005EC15DF1E00E5F155E6F5F6B5CBF5E89F8
:102080005CBD5E85120001015AA71CD05AC114F034
:1020900059C115F0030ED89015321432E804FBE153
:1020A00014C05FF1200E01011510606F030E5A1568
:1020B000146EFC0E5F1514105F6F5CC15DF15BC1A7
:1020C0005EF10ED05AC114F059C115F0050ED8902A
:1020D00015321432E804FBE114C05DF115C05EF165
:0C20E00001015AB5608D5AB9608F1200E2
:0420EC006FCF33F18E
:1020F0000101020E006F61C101F162C102F163C111
:1021000003F164C104F120EC0AF005C165F101019D
:10211000655102E00101458312006FCF33F165C1C3
:1021200000F15AEC0AF00101459312000F0E6514FC
:1021300002E1FBEC0AF0120001013651020A1EE036
:10214000030A01E0120061C159F162C15AF163C191
:102150005BF164C15CF143EC10F034C1E9FF35C1BF
:10216000EAFFEE50EFCFEAFFE96E5DC1EEFF5EC120
:10217000EEFF5FC1EEFF60C1EEFF120034C1E9FF68
:1021800035C1EAFFEE50EFCFEAFFE96EEECF59F12D
:10219000EECF5AF1EECF5BF1EFCF5CF106EC10F031
:1021A00001015EB50BD0B9DF5DC161F15EC162F1C5
:1021B0005FC163F160C164F176EF10F00101120EAE
:0421C000376F120063
:0C21C400060EF66E000EF76E000EF86EB0
:1021D00001010900F550546F0900F550556F03E1F6
:1021E000546701D03DD00900F5504F6F0900F550FC
:1021F000506F0900F550516F09000900F550E96E64
:102200000900F550EA6E090009000900F550526F07
:102210000900F550536F09000900F6CF56F1F7CFCA
:1022200057F1F8CF58F14FC1F6FF50C1F7FF51C138
:10223000F8FF0101525302E1535307E00900F55042
:10224000EE6E5207F8E25307F9D756C1F6FF57C1B1
:10225000F7FF58C1F8FF01015407000E555BBFD7C7
:0222600012006A
:0E2262006FCF33F10101010E006F0101016B1E
:10227000026B036B046B20EC0AF005C16DF10101E8
:102280006D5102E00101458112006FCF33F16DC144
:1022900000F15AEC0AF00101459112000F0E65148D
:1022A000020823E101014251675C02E067501DE131
:1022B0006650820A16E0030A12E0010A0BE0820A65
:1022C00006E0030A01E012000101438305D0010189
:1022D000438503D0010143934395FFEF11F01EECBA
:0C22E00012F01CEC12F056EC0CF0120096
:0422EC000101365165
:1022F000020A05E0030A03E0010A01E012001200ED
:1023000001013651020A05E0030A03E0010A01E077
:102310001200120001013651020A05E0030A03E02F
:10232000010A01E01200120001013651020A05E023
:10233000030A03E0010A01E0120012000101365114
:10234000020A05E0030A03E0010A01E0120012009C
:1023500001013651020A05E0030A03E0010A01E027
:042360001200120055
:0C23640054EC12F00101020E426F010166
:10237000050E446F640E0001F96FFA6B0001FB6BF0
:10238000FC6B0001FD6BDBEC11F0A8EC0AF056ECE5
:102390000CF0FFEC11F0010143A1FFD750EC00F06D
:1023A0008BEC12F0FAEC0AF05BEC12F00009F8E0AA
:0623B000A1EC0DF0F5D7D1
:0A23B6000F0EC16E92909292929465
:1023C0009296968480908092809480961200D9CFC5
:1023D000E6FFE1CFD9FFE652DF6A84A408D001010D
:1023E0006E5102E1010EDF6E010E6E6F02D001012F
:0E23F0006E6BDF50E552E552E7CFD9FF1200C9
:0223FE000101DB
:1024000043A503D0808280940BD04351010B0AE096
:102410004351020B07E14351040B04E18092808495
:10242000809612004351020B06E04351040B03E176
:102430008092809480861200FF00120012008C703F
:02244000120088
:0E24420008C012F008500D02F4CF07F0F3CFDF
:1024500006F009500E02F4CF09F0F3CF08F00D0298
:10246000F3500726F4500822E86A092212500E029F
:0E247000F3500726F4500822E86A0922000CF7
:02247E004A937F
:102480000800434F4E54524F4C4C45520056312E8B
:10249000300056312E300005111155552222555568
:0824A0003333555544445555F2
:0824A800470ED56E630ED66EDF
:1024B000D58EF2941200F2A407D00001640EFF6FD3
:0A24C000E850D626F294010C000C3F
:0624CA00000EF36E00EEAF
:1024D00000F00D0E01D81200EA6002D0EE6AFCD7BF
:0A24E000F350E9601200EE6AFCD729
:0624EA001CEE00F02CEED8
:1024F00000F0F86A019CE2EC10F09BEC12F0B2ECF8
:0625000011F0FBD71200F0
:0A25060012232902287994381223C9
:062510002902287994382D
:0A251600E3EC08F07DEC0CF0ECECB7
:062520000CF065EF0DF068
:0A25260008010060080100620800CF
:0525300000000108029B
:0125350003A2
:02253600120091
:0125380000A2
:0225390001009F
:020000040030CA
:0100010002FC
:010002001FDE
:010003001EDE
:010005008278
:010006008178
:010008000FE8
:01000900C036
:01000A000FE6
:01000B00E014
:01000C000FE4
:01000D0040B2
:00000001FF
